:100000000C9466010C9497010C9497010C94970141
:100010000C9497010C9497010C9497010C94970100
:100020000C9497010C9497010C9497010C949701F0
:100030000C9497010C9497010C9497010C949701E0
:100040000C9497010C9497010C9497010C949701D0
:100050000C9497010C9497010C9497010C946505EE
:100060000C9497010C9439060C940F060C9497018C
:100070000C9497010C9497010C9497010C949701A0
:100080000C9497010C9497010C9497010C94970190
:100090000C94D9050C94AF050C9497010C9497011E
:1000A0000C9497010C9497010C9497010C94970170
:1000B0000C9497010C9497010C9497010C94970160
:1000C0000C9497010C9497010C9497010C94970150
:1000D0000C9497010C9497010C9497010C94970140
:1000E0000C949701B401B701A601AA01B001EE0179
:1000F000BB01BF01C501C901CD01D301D701DB019E
:10010000EE01E101E501E901360A9F0A9F0A4C0A66
:100110004F0A570A9F0A9F0A4F0A9F0A730A9F0AAB
:100120009F0A9F0A9F0A9F0A9F0A9F0A360A0C94F9
:100130006F030C94BB010C94DB010C94C9010C946B
:10014000570A0C94C5010C944F0A0C94B0010C94FE
:10015000AA010C947D030C94CD010C94D3010C9452
:10016000360A0C941E030C945B030C949F0A0C94A7
:10017000730A0C94EE010C94E1010C94A6010C940A
:100180006F060C94E5010C944C030C94D7010C946D
:10019000E9010C940C040C94BF030C94B7010C946B
:1001A000BF010C944C0A0C94B401000021002400FF
:1001B00027002A002D003000330001010000040157
:1001C00007010A0100002200250028002B002E0054
:1001D0003100340002010000050108010B0100009C
:1001E00020002300260029002C002F0032000001EF
:1001F00000000301060109010505050507050808BA
:100200000808020202020A0A0808040404040101A0
:1002100001010101010103030303030303030407B5
:1002200007070C0C0C0C0C0C0C0C0202020206064C
:100230000606060606060B0B0B0B0B0B0B0B01023F
:1002400010202008081020401020408002010201E8
:1002500008040201010204081020408080402010A0
:1002600008040201800402018040201008040201F9
:100270000804020101020408102040800102040861
:100280001020408000000A0B02090C0D0E08070325
:100290000401000000000000000000000000000059
:1002A000000000000000000000000000000000004E
:1002B000121110000000000000000000000000000B
:1002C000000000000000000000006F0611241FBEA7
:1002D000CFEFD1E2DEBFCDBF00E00CBF13E0A0E066
:1002E000B2E0E2E1F8E100E00BBF02C007900D923E
:1002F000A634B107D9F725E0A6E4B3E001C01D920A
:10030000A630B207E1F711E0C6E6D1E000E006C092
:1003100021970109802FFE010E94D90AC536D10715
:1003200080E00807A9F70E94CB060C94070C0C94F8
:10033000000090E0FC013197E231F10508F04EC079
:100340008827EE58FF4F8F4F0C94D90A8091800078
:100350008F7703C0809180008F7D80938000089507
:1003600080918000877FF9CF84B58F7702C084B5F4
:100370008F7D84BD08958091B0008F7703C08091F8
:10038000B0008F7D8093B0000895809190008F77AA
:1003900007C0809190008F7D03C080919000877F7F
:1003A0008093900008958091A0008F7707C080917E
:1003B000A0008F7D03C08091A000877F8093A00064
:1003C0000895809120018F7707C0809120018F7D53
:1003D00003C080912001877F809320010895CF93EF
:1003E000DF93282F30E0F901EC57FD4F8491F9019C
:1003F000E25CFD4FD491F901E850FE4FC491CC234B
:1004000091F081110E949901EC2FF0E0EE0FFF1F97
:10041000E252FE4FA591B491EC91ED2381E090E082
:1004200021F480E002C080E090E0DF91CF91089558
:100430001F93CF93DF93282F30E0F901EC57FD4F46
:100440008491F901E25CFD4FD491F901E850FE4F2F
:10045000C491CC23C1F0162F81110E949901EC2F79
:10046000F0E0EE0FFF1FEC53FE4FA591B4919FB744
:10047000F894111104C08C91D095D82302C0EC914E
:10048000DE2BDC939FBFDF91CF911F910895CF9317
:10049000DF9390E0FC01E25CFD4F2491FC01E85009
:1004A000FE4F8491882361F190E0880F991FFC0131
:1004B000E655FE4FC591D491FC01EC53FE4FA5913A
:1004C000B491611109C09FB7F89488812095822367
:1004D0008883EC912E230BC0623061F49FB7F894AF
:1004E0008881322F309583238883EC912E2B2C9397
:1004F0009FBF06C08FB7F894E8812E2B28838FBF4B
:10050000DF91CF910895CF92DF92EF92FF920F93F8
:10051000CF93DF93FC01862FD42FC22F42E050E00F
:1005200060E070E0408351836283738348E95AE35B
:1005300060E070E04483558366837783408751870A
:100540006287738798ECC92E9FEAD92EE12CF12C93
:10055000C486D586E686F786408B518B628B738B7B
:1005600040EA5FE060E070E0448B558B668B778BF0
:1005700048EE53E060E070E0408F518F628F738FE0
:1005800013A214A215A216A217A210A611A612A6B3
:1005900013A614A615A616A617A610AA11AA12AA83
:1005A00013AA14AA15AA16AA17AA10AE11AE12AE53
:1005B00013AE14AE848F9FE1958F91E2968FD78F03
:1005C00020A39BE291A302A360E00E94470261E0A6
:1005D0008FE10E94470261E08FE10E94180261E012
:1005E00081E20E94470261E081E20E94180261E01C
:1005F0008D2F0E94470261E08D2F0E941802CC23AC
:1006000041F061E08C2F0E94470261E08C2F0E9434
:100610001802002359F060E0802FDF91CF910F91F5
:10062000FF90EF90DF90CF900C944702DF91CF9135
:100630000F91FF90EF90DF90CF900895CF92DF92CF
:10064000EF92FF920F931F93CF93DF936C017A0188
:100650008B01C0E0D0E0CE15DF0581F0D8016D91AF
:100660008D01D601ED91FC910190F081E02DC60144
:100670001995892B11F02196EECF7E01C701DF91EC
:10068000CF911F910F91FF90EF90DF90CF90089541
:10069000089580E090E00895FC01538D448D252F4E
:1006A00030E0842F90E0821B930B541710F0CF960C
:1006B000089501970895FC01918D828D981761F03E
:1006C000828DDF01A80FB11D5D968C91928D9F5F89
:1006D0009F73928F90E008958FEF9FEF0895FC0134
:1006E000918D828D981731F0828DE80FF11D858DE7
:1006F00090E008958FEF9FEF0895FC01918D228D7A
:10070000892F90E0805C9F4F821B91098F739927FE
:10071000089580E993E00E947D0321E0892B09F48C
:1007200020E0822F08958DE294E00E947D0321E075
:10073000892B09F420E0822F0895FC01848DDF01CC
:10074000A80FB11DA35ABF4F2C91848D90E0019644
:100750008F739927848FA689B7892C93A089B18933
:100760008C91837080648C93938D848D981306C0D4
:100770000288F389E02D80818F7D80830895EF9238
:10078000FF920F931F93CF93DF93EC0181E0888F4B
:100790009B8D8C8D981305C0E889F989808185FD32
:1007A00026C0F62E0B8D10E00F5F1F4F0F73112721
:1007B000E02E8C8DE8120CC00FB607FCFACFE8894A
:1007C000F989808185FFF5CFCE010E949D03F1CF8D
:1007D0008B8DFE01E80FF11DE35AFF4FF0829FB7AA
:1007E000F8940B8FEA89FB89808180620AC09FB7E9
:1007F000F894EE89FF896083E889F98980818370A4
:10080000806480839FBF81E090E0DF91CF911F9152
:100810000F91FF90EF900895CF93DF93EC01888DB7
:100820008823C9F0EA89FB89808185FD05C0A889F4
:10083000B9898C9186FD0FC00FB607FCF5CF80817A
:1008400085FFF2CFA889B9898C9185FFEDCFCE01C4
:100850000E949D03E7CFDF91CF91089580E090E063
:10086000892B21F00E949303811121C080E090E048
:10087000892B21F00E94890381111CC080E090E047
:10088000892B41F080E090E0892B21F00E9400004C
:10089000811113C080E090E0892BA1F080E090E00E
:1008A000892B81F00E94000081110AC008950E94E6
:1008B0000000DCCF0E940000E1CF0E940000EACFE0
:1008C0000C9400000895CF93DF93EC0188810E947F
:1008D000EF01482F29813A8131FF03C05B815150DC
:1008E0005B83442319F05B815F5F5B83220F331FBF
:1008F00081709927822B932B9A8389838C818823FB
:1009000021F0433030F41C8204C0483010F081E004
:100910008C83DF91CF9108951F93CF93DF93EC01E8
:10092000862F688342E350E060E070E04D835E8391
:100930006F83788719861A861B861C8662E00E9460
:1009400047021A8219821B821C821AE0CE010E9481
:1009500063041150D9F7DF91CF911F91089500974B
:1009600069F0FC0101900020E9F73197AF01481BC5
:10097000590BBC018DE294E00C941E0380E090E0E2
:1009800008958F929F92AF92BF920F931F93CF9330
:10099000DF93CDB7DEB7A1970FB6F894DEBF0FBED9
:1009A000CDBF19A2423008F44AE08E010F5D1F4FFF
:1009B000842E912CA12CB12CA50194010E94B70A80
:1009C000E62FB901CA0101501109EA3014F4E05DC3
:1009D00001C0E95CD801EC93232B242B252B61F774
:1009E000C8010E94AF04A1960FB6F894DEBF0FBEF7
:1009F000CDBFDF91CF911F910F91BF90AF909F908E
:100A00008F9008950C94AF04CF92DF92EF92FF92F3
:100A1000CF93DF936C01990FEE08FF08F7FE19C022
:100A20006DE28DE294E00E94BF03EC016627772718
:100A3000CB016C197D098E099F094AE00E94C1040F
:100A40008C0F9D1FDF91CF91FF90EF90DF90CF90A3
:100A500008954AE0C701B601DF91CF91FF90EF9072
:100A6000DF90CF900C94C104CF93DF930E940405D4
:100A7000EC0188EF92E00E94AF048C0F9D1FDF9184
:100A8000CF9108951F93CF93DF93EC01162F8BEF37
:100A900092E00E940205CE014C968C0F9D1F0E9491
:100AA000040583E093E00E940205812F90E00E94FC
:100AB000340561E061278C2F880F845EDF91CF9130
:100AC0001F910C9418020E94020C1F920F920FB6F5
:100AD0000F9211242F933F938F939F93AF93BF93C4
:100AE00080918C0390918D03A0918E03B0918F0320
:100AF00030918B0323E0230F2D3720F40196A11DA5
:100B0000B11D05C026E8230F0296A11DB11D20933B
:100B10008B0380938C0390938D03A0938E03B093EB
:100B20008F038091870390918803A0918903B091EE
:100B30008A030196A11DB11D8093870390938803BA
:100B4000A0938903B0938A03BF91AF919F918F9136
:100B50003F912F910F900FBE0F901F9018951F92ED
:100B60000F920FB60F9211240BB60F922F933F9353
:100B70004F935F936F937F938F939F93AF93BF93A5
:100B8000EF93FF9380E993E00E949D03FF91EF9123
:100B9000BF91AF919F918F917F916F915F914F9195
:100BA0003F912F910F900BBE0F900FBE0F901F9093
:100BB00018951F920F920FB60F9211240BB60F9239
:100BC0002F938F939F93EF93FF93E091A003F09166
:100BD000A1038081E091A603F091A70382FD12C0DA
:100BE00090818091A9038F5F8F732091AA03821750
:100BF00051F0E091A903F0E0E057FC4F958F80930E
:100C0000A90301C08081FF91EF919F918F912F9156
:100C10000F900BBE0F900FBE0F901F9018951F9254
:100C20000F920FB60F9211240BB60F922F933F9392
:100C30004F935F936F937F938F939F93AF93BF93E4
:100C4000EF93FF938DE294E00E949D03FF91EF915B
:100C5000BF91AF919F918F917F916F915F914F91D4
:100C60003F912F910F900BBE0F900FBE0F901F90D2
:100C700018951F920F920FB60F9211240BB60F9278
:100C80002F938F939F93EF93FF93E0913D04F09107
:100C90003E048081E0914304F091440482FD12C03F
:100CA0009081809146048F5F8F7320914704821753
:100CB00051F0E0914604F0E0E35DFB4F958F8093A7
:100CC000460401C08081FF91EF919F918F912F91F8
:100CD0000F900BBE0F900FBE0F901F901895E0E97C
:100CE000F3E01382128248EE53E060E070E0448348
:100CF0005583668377838AEE92E0918380832DEC1F
:100D000030E0358724872CEC30E03787268728ECC5
:100D100030E0318B208B29EC30E0338B228B2AECB6
:100D200030E0358B248B2EEC30E0378B268B118E08
:100D3000128E138E148EEDE2F4E01382128244833D
:100D40005583668377839183808385EC90E09587D4
:100D5000848784EC90E09787868780EC90E0918B85
:100D6000808B81EC90E0938B828B82EC90E0958B72
:100D7000848B86EC90E0978B868B118E128E138E6F
:100D8000148E8FEF8093F4048093E6048093D8044C
:100D90008093CA040895789484B5826084BD84B534
:100DA000816084BD85B5826085BD85B5816085BD66
:100DB00080916E00816080936E001092810080911E
:100DC00081008260809381008091810081608093A6
:100DD0008100809180008160809380008091B100CB
:100DE00084608093B1008091B00081608093B000F6
:100DF0008091910082608093910080919100816048
:100E00008093910080919000816080939000809108
:100E1000A10082608093A1008091A10081608093F5
:100E2000A1008091A00081608093A00080912101A9
:100E30008260809321018091210181608093210152
:100E40008091200181608093200180917A008460EC
:100E500080937A0080917A00826080937A008091FA
:100E60007A00816080937A0080917A008068809314
:100E70007A001092C100E0913D04F0913E0422E01E
:100E80002083E0913904F0913A041082E0913B0410
:100E9000F0913C0480E1808310924504E09141048C
:100EA000F091420496E09083E0913F04F091400479
:100EB000808180618083E0913F04F09140048081D3
:100EC00088608083E0913F04F091400480818068D5
:100ED0008083E0913F04F091400480818F7D808386
:100EE000E091A003F091A1032083E0919C03F09195
:100EF0009D031082E0919E03F0919F038FEC80830D
:100F00001092A803E091A403F091A5039083E091CF
:100F1000A203F091A303808180618083E091A2030A
:100F2000F091A303808188608083E091A203F09117
:100F3000A303808180688083E091A203F091A303E2
:100F400080818F7D80838DE390E00E94E10A00E044
:100F500025E24DE16BE10E9483028DE390E00E9467
:100F6000E10A27E24DE169E10E9483028DE390E00E
:100F70000E94E10A0DE229E243E267E10E94830256
:100F80008CEA92E0909367038093660381E090E09F
:100F90009093650380936403109269031092680331
:100FA00087EE93E090936B0380936A0310926D0336
:100FB00010926C0328E832E030935D0320935C03C9
:100FC00022E030E030935B0320935A0310925F03DA
:100FD00010925E0390936103809360031092630309
:100FE0001092620324E432E03093530320935203BF
:100FF00023E030E0309351032093500310925503C7
:101000001092540390935703809356031092590300
:101010001092580320E032E03093490320934803B4
:1010200024E030E0309347032093460310924B03B3
:1010300010924A0390934D0380934C0310924F03F8
:1010400010924E0360E086E30E94470266E184EF5F
:1010500094E00E948C046CE186EE94E00E948C0483
:1010600068E188ED94E00E948C046AE18AEC94E0E7
:101070000E948C04CEE161E08C2F0E94470261E067
:101080008C2F0E941802CE5FCE32A9F744244A94D6
:10109000542C3201F6EE2F2EF2E03F2E8FB7F8944B
:1010A000C0908C03D0908D03E0908E03F0908F035E
:1010B0008FBF80916F0390917003A0917103B091E5
:1010C00072038C159D05AE05BF0508F06FC0C6E123
:1010D00088E093E00E9402058C2F0E94EF010E949D
:1010E00004058DE093E00E940205CE5FCE3181F7CA
:1010F0008091F804811103C0C091EA0401C0C1E0ED
:101100009091DC04911131C29091CE0491112DC2C5
:1011100090E00E9404058CE093E00E94020580911B
:10112000EA0490E00E9404058CE093E00E9402052E
:101130008091DC0490E00E9404058CE093E00E9422
:1011400002058091CE0490E00E9404058CE093E0BB
:101150000E9402056C2F70E080E090E04AE00E945F
:10116000C10488EF92E00E94AF046C2F80E993E005
:101170000E94BF03D701C6018C509E4FAF4FBF4F97
:1011800080936F0390937003A0937103B0937203E5
:1011900080916E0391E0980F90936E03853130F04B
:1011A00088EF92E00E94AF0410926E0380E993E012
:1011B0000E947D03892B09F495C080E993E00E9489
:1011C0005B03EC01807F9927803D910521F0803FF2
:1011D000910581F087C0D701C601805A9541AF4F74
:1011E000BF4F80937F0390938003A0938103B093BC
:1011F000820378C0BC2E11E00C2F0870C3FD10E0F4
:101200008FE093E00E9402056B2D70E080E090E09B
:1012100040E10E94C10488EF92E00E94AF04C770D1
:10122000C230C1F070F4CC2389F0C13009F05AC04B
:10123000612F83E090E00E944205612F84E090E0FE
:1012400011C0C43091F0C53079F14CC0612F85E0F8
:1012500090E008C0612F81E090E00E944205612F7C
:1012600082E090E00E9442053DC001113BC061E078
:1012700087E090E00E9442052FB7F89480918C039C
:1012800090918D03A0918E03B0918F032FBF805357
:10129000984FAF4FBF4F8093D4029093D502A09345
:1012A000D602B093D7021EC001111CC061E086E0D7
:1012B00090E00E9442052FB7F89480918C039091A2
:1012C0008D03A0918E03B0918F032FBF8053984F51
:1012D000AF4FBF4F8093D0029093D102A093D20220
:1012E000B093D3028091830390918403A0918503EE
:1012F000B09186038C159D05AE05BF0508F051C061
:1013000084EF94E00E94630486EE94E00E946304FC
:1013100088ED94E00E9463048AEC94E00E946304E8
:101320008091D4029091D502A091D602B091D702BB
:101330008C159D05AE05BF0568F460E087E090E080
:101340000E9442054092D4025092D5026092D60289
:101350007092D7028091D0029091D102A091D202D6
:10136000B091D3028C159D05AE05BF0568F460E011
:1013700086E090E00E9442054092D0025092D10255
:101380006092D2027092D302D701C601C296A11D0B
:10139000B11D8093830390938403A0938503B0933E
:1013A000860380917F0390918003A0918103B09187
:1013B0008203C816D906EA06FB0608F4D3C080915A
:1013C0007B0390917C03A0917D03B0917E038C15EB
:1013D0009D05AE05BF0508F0C5C07EED872E72E005
:1013E000972EF401C191D1914F014A815B812C81EB
:1013F0003D81C901880F991FFA01E80FF91FB080DC
:10140000028113818E819F8128173907E1F083E2E1
:1014100093E00E940205888199810E9404058AE276
:1014200093E00E9402056B2D8DE294E00E94BF03C1
:1014300086E393E00E940205C8010E9434058C8176
:101440009D819F838E838B2D0B2C000C990BAA0BF7
:10145000BB0BFC01E454F109E331F10508F06FC066
:101460008827EC57FF4F8F4F0C94D90A88859985B0
:10147000181619063CF4019799878887892B09F07B
:1014800060C04FC0F6E5BF1204C0159507951595CD
:1014900007951987088755C01D830C8352C061E0EA
:1014A00028E4B21260E0C8010E9442053AC002304E
:1014B000110589F03CF40130110509F042C080911A
:1014C000F8040EC00330110549F004301105C9F5C8
:1014D0008091CE0405C08091EA0402C08091DC04B2
:1014E00081111FC02EC080E493E00E940205C80154
:1014F000880F991FFC01EF58FC4F5F01808191819B
:101500000E943405802F880F8C5E0E94EF01F50148
:10151000892B91F4808191818536910544F0118267
:1015200010828C819D8102969D838C830AC00196D6
:10153000F5019183808305C01182108202C01D8253
:101540001C822814390409F04CCFF4E6CF0ED11CCC
:10155000E11CF11CC0927B03D0927C03E0927D03DE
:10156000F0927E030E942E0499CDC260D1CDA1E2FB
:101570001A2EAA1BBB1BFD010DC0AA1FBB1FEE1F0D
:10158000FF1FA217B307E407F50720F0A21BB30B58
:10159000E40BF50B661F771F881F991F1A9469F7D4
:1015A00060957095809590959B01AC01BD01CF0130
:1015B0000895EE0FFF1F881F8BBF0790F691E02D57
:1015C00019940F931F93CF93DF938230910510F4FA
:1015D00082E090E0E0910405F091050520E030E024
:1015E000A0E0B0E0309719F1408151810281138170
:1015F00048175907C8F08417950769F4109731F018
:1016000012960C93129713961C9327C0009304050F
:101610001093050522C02115310519F04217530713
:1016200018F49A01BD01EF01DF01F801DBCF2115AC
:101630003105F9F0281B390B2430310580F48A81FB
:101640009B816115710521F0FB019383828304C0A6
:101650009093050580930405FE01329644C0FE0177
:10166000E20FF31F8193919322503109398328832C
:101670003AC02091020530910305232B41F42091BB
:10168000DA023091DB0230930305209302052091AA
:10169000D8023091D9022115310541F42DB73EB75A
:1016A0004091DC025091DD02241B350BE0910205D4
:1016B000F0910305E217F307A0F42E1B3F0B281748
:1016C000390778F0AC014E5F5F4F2417350748F0BB
:1016D0004E0F5F1F50930305409302058193919332
:1016E00002C0E0E0F0E0CF01DF91CF911F910F91B8
:1016F0000895CF93DF93009709F481C0FC013297DE
:1017000013821282A0910405B0910505109781F40F
:1017100020813181820F931F2091020530910305B2
:101720002817390751F5F0930305E093020567C0C8
:10173000ED0120E030E0CE17DF0740F44A815B8105
:101740009E0141155105F1F0EA01F5CFD383C28323
:1017500040815181840F951FC817D90759F488819A
:101760009981840F951F0296918380838A819B8142
:10177000938382832115310529F4F0930505E093C5
:1017800004053DC0E901FB83EA8349915991C40FE7
:10179000D51FEC17FD0761F480819181840F951F9F
:1017A0000296E90199838883828193819B838A834E
:1017B000E0E0F0E012968D919C911397009719F05C
:1017C000FD01DC01F7CF8D919C9111979D012E5F5A
:1017D0003F4F820F931F2091020530910305281778
:1017E000390769F4309729F4109205051092040521
:1017F00002C013821282B0930305A0930205DF9109
:10180000CF91089581E090E0F8940C94070CF8943F
:02181000FFCF08
:101812004900010044008C00480003004800040015
:1018220044003C004C0004004C00030044001E0035
:101832004800050044003C004C00050056009A0197
:101842004800070044003C004C0007004E00010025
:10185200470000004900020044008C0048000100DB
:101862004800020044003C004C0002004C00010011
:1018720044001E004800050044003C004C000500E6
:1018820056009A014800060044003C004C00060045
:101892004E000200470000004900030056002C01E0
:1018A200480001004800020044003C004C000200D5
:1018B2004C0001004E0003004700000049000400F4
:1018C20056002C01480003004800040044003C007C
:1018D2004C0004004C0003004E00040047000000CE
:1018E200FFFFFFFFFFFFFFFF00000605200064036C
:1018F2005A035003460300000000BF031E034C03BB
:101902000C047D035B036F030D0A0052656C616971
:10191200732000202D3E2000202D20002C20004787
:101922006C6569736B6F6E74616B742F204D5754C5
:101932003A20004C6F6F703A20002C20436F6D6D7F
:10194200616E643A20002C20706172616D3A200051
:06195200204C523A000097
:00000001FF
